{
    "hex": "",
    "txid": "d715807cf35de1663d9413b0b0863aae83876c81a78206cedf4fd60bb0a986b7",
    "hash": "d715807cf35de1663d9413b0b0863aae83876c81a78206cedf4fd60bb0a986b7",
    "version": 1,
    "size": 225,
    "locktime": 0,
    "vin": [
        {
            "coinbase": "",
            "txid": "b875f66a5712fde6929b1c49149352a00dcba98a52b62ceb88ef70a1726f734c",
            "vout": 0,
            "scriptSig": {
                "asm": "3044022031b3d144410f38bb44f56b3be313f283b85953e1f79b7764d90e7dfaadd08c9a022030fd827fc8d6140bec8f9002a42abf33562f493b79e1834a31b5e0159b07a828[ALL|FORKID] 03112fdedc5d6c32d37e1a2ef6523732ea6482d9c753fd02cc97c1a3b82c065f65",
                "hex": "473044022031b3d144410f38bb44f56b3be313f283b85953e1f79b7764d90e7dfaadd08c9a022030fd827fc8d6140bec8f9002a42abf33562f493b79e1834a31b5e0159b07a828412103112fdedc5d6c32d37e1a2ef6523732ea6482d9c753fd02cc97c1a3b82c065f65"
            },
            "sequence": 4294967295
        }
    ],
    "vout": [
        {
            "value": 2.83735318,
            "n": 0,
            "scriptPubKey": {
                "asm": "OP_DUP OP_HASH160 dcc0696670003d7861f6eb996f750bb4d0087fa6 OP_EQUALVERIFY OP_CHECKSIG",
                "hex": "76a914dcc0696670003d7861f6eb996f750bb4d0087fa688ac",
                "reqSigs": 1,
                "type": "pubkeyhash",
                "addresses": [
                    "1M8EACnzBJskwZk19PTSDwanCTkh3aNS4q"
                ],
                "opReturn": null,
                "isTruncated": false
            }
        },
        {
            "value": 0.00020331,
            "n": 1,
            "scriptPubKey": {
                "asm": "OP_DUP OP_HASH160 2f353ff06fe8c4d558b9f58dce952948252e5df7 OP_EQUALVERIFY OP_CHECKSIG",
                "hex": "76a9142f353ff06fe8c4d558b9f58dce952948252e5df788ac",
                "reqSigs": 1,
                "type": "pubkeyhash",
                "addresses": [
                    "15JcYsiTbhFXxU7RimJRyEgKWnUfbwttb3"
                ],
                "opReturn": null,
                "isTruncated": false
            }
        }
    ],
    "blockhash": "00000000000000000107655a67f59c085c22f17e7d66831b119fe066e2a3e50d",
    "confirmations": 79,
    "time": 1620928201,
    "blocktime": 1620928201,
    "blockheight": 687083
}




  {
    "txid": "d715807cf35de1663d9413b0b0863aae83876c81a78206cedf4fd60bb0a986b7",
    "hash": "d715807cf35de1663d9413b0b0863aae83876c81a78206cedf4fd60bb0a986b7",
    "version": 1,
    "size": 225,
    "locktime": 0,
    "vin": [
        {
            "txid": "b875f66a5712fde6929b1c49149352a00dcba98a52b62ceb88ef70a1726f734c",
            "vout": 0,
            "scriptSig": {
                "asm": "3044022031b3d144410f38bb44f56b3be313f283b85953e1f79b7764d90e7dfaadd08c9a022030fd827fc8d6140bec8f9002a42abf33562f493b79e1834a31b5e0159b07a828[ALL|FORKID] 03112fdedc5d6c32d37e1a2ef6523732ea6482d9c753fd02cc97c1a3b82c065f65",
                "hex": "473044022031b3d144410f38bb44f56b3be313f283b85953e1f79b7764d90e7dfaadd08c9a022030fd827fc8d6140bec8f9002a42abf33562f493b79e1834a31b5e0159b07a828412103112fdedc5d6c32d37e1a2ef6523732ea6482d9c753fd02cc97c1a3b82c065f65"
            },
            "sequence": 4294967295
        }
    ],
    "vout": [
        {
            "value": 2.83735318,
            "n": 0,
            "scriptPubKey": {
                "asm": "OP_DUP OP_HASH160 dcc0696670003d7861f6eb996f750bb4d0087fa6 OP_EQUALVERIFY OP_CHECKSIG",
                "hex": "76a914dcc0696670003d7861f6eb996f750bb4d0087fa688ac",
                "reqSigs": 1,
                "type": "pubkeyhash",
                "addresses": [
                    "1M8EACnzBJskwZk19PTSDwanCTkh3aNS4q"
                ]
            }
        },
        {
            "value": 0.00020331,
            "n": 1,
            "scriptPubKey": {
                "asm": "OP_DUP OP_HASH160 2f353ff06fe8c4d558b9f58dce952948252e5df7 OP_EQUALVERIFY OP_CHECKSIG",
                "hex": "76a9142f353ff06fe8c4d558b9f58dce952948252e5df788ac",
                "reqSigs": 1,
                "type": "pubkeyhash",
                "addresses": [
                    "15JcYsiTbhFXxU7RimJRyEgKWnUfbwttb3"
                ]
            }
        }
    ],
    "hex": "01000000014c736f72a170ef88eb2cb6528aa9cb0da0529314491c9b92e6fd12576af675b8000000006a473044022031b3d144410f38bb44f56b3be313f283b85953e1f79b7764d90e7dfaadd08c9a022030fd827fc8d6140bec8f9002a42abf33562f493b79e1834a31b5e0159b07a828412103112fdedc5d6c32d37e1a2ef6523732ea6482d9c753fd02cc97c1a3b82c065f65ffffffff021675e910000000001976a914dcc0696670003d7861f6eb996f750bb4d0087fa688ac6b4f0000000000001976a9142f353ff06fe8c4d558b9f58dce952948252e5df788ac00000000"
}